{
  "contractName": "Joy",
  "abi": [
    {
      "inputs": [
        {
          "internalType": "uint256",
          "name": "_balance",
          "type": "uint256"
        }
      ],
      "stateMutability": "nonpayable",
      "type": "constructor"
    },
    {
      "inputs": [
        {
          "internalType": "uint256",
          "name": "expence",
          "type": "uint256"
        }
      ],
      "name": "buyGrocerries",
      "outputs": [
        {
          "internalType": "string",
          "name": "",
          "type": "string"
        }
      ],
      "stateMutability": "nonpayable",
      "type": "function"
    },
    {
      "inputs": [],
      "name": "getBalance",
      "outputs": [
        {
          "internalType": "uint256",
          "name": "",
          "type": "uint256"
        }
      ],
      "stateMutability": "view",
      "type": "function"
    }
  ],
  "bytecode": "0x608060405234801561001057600080fd5b506040516103c53803806103c58339818101604052810190610032919061007a565b80600081905550506100a7565b600080fd5b6000819050919050565b61005781610044565b811461006257600080fd5b50565b6000815190506100748161004e565b92915050565b6000602082840312156100905761008f61003f565b5b600061009e84828501610065565b91505092915050565b61030f806100b66000396000f3fe608060405234801561001057600080fd5b50600436106100365760003560e01c806312065fe01461003b578063e8ec0a4114610059575b600080fd5b610043610089565b604051610050919061014b565b60405180910390f35b610073600480360381019061006e9190610197565b610092565b6040516100809190610254565b60405180910390f35b60008054905090565b6060808260005410156100dc576040518060400160405280601481526020017f496e73756666696369656e742042616c616e63650000000000000000000000008152509050610129565b826000546100ea91906102a5565b6000819055506040518060400160405280601281526020017f47726f6365727269657320626f7567687421000000000000000000000000000081525090505b80915050919050565b6000819050919050565b61014581610132565b82525050565b6000602082019050610160600083018461013c565b92915050565b600080fd5b61017481610132565b811461017f57600080fd5b50565b6000813590506101918161016b565b92915050565b6000602082840312156101ad576101ac610166565b5b60006101bb84828501610182565b91505092915050565b600081519050919050565b600082825260208201905092915050565b60005b838110156101fe5780820151818401526020810190506101e3565b60008484015250505050565b6000601f19601f8301169050919050565b6000610226826101c4565b61023081856101cf565b93506102408185602086016101e0565b6102498161020a565b840191505092915050565b6000602082019050818103600083015261026e818461021b565b905092915050565b7f4e487b7100000000000000000000000000000000000000000000000000000000600052601160045260246000fd5b60006102b082610132565b91506102bb83610132565b92508282039050818111156102d3576102d2610276565b5b9291505056fea26469706673582212208e1923c4b676b18969682e8f79e6c670c3fa1406493a5bb126ee3472e53e911c64736f6c63430008110033",
  "immutableReferences": {},
  "source": "// Name: Joy Almeida\r\n// UID: 2020401070 (IT)\r\npragma solidity ^0.8.7;\r\n\r\n\r\ncontract Joy {\r\n    uint256 private balance;\r\n\r\n    constructor(uint256 _balance){\r\n\t\tbalance = _balance;\r\n\t}\r\n\r\n    function buyGrocerries(uint256 expence) public returns (string memory) {\r\n        string memory result;\r\n        if(balance < expence){\r\n            result = \"Insufficient Balance\";\r\n        }else{\r\n            balance = balance - expence;\r\n            result = \"Grocerries bought!\";\r\n        }\r\n        return result;\r\n    }\r\n\r\n    function getBalance() public view returns (uint256) {\r\n        return balance;\r\n    }\r\n}",
  "sourcePath": "C:\\Users\\JOY\\Documents\\SPIT\\Sem7\\BCT\\Lab\\Lab8- Nov1\\TruffleP2\\contracts\\BalanceCheckBuy.sol",
  "compiler": {
    "name": "solc",
    "version": "0.8.17+commit.8df45f5f.Emscripten.clang"
  },
  "schemaVersion": "3.4.10",
  "updatedAt": "2022-11-01T11:28:07.701Z",
  "devdoc": {
    "kind": "dev",
    "methods": {},
    "version": 1
  },
  "userdoc": {
    "kind": "user",
    "methods": {},
    "version": 1
  }
}